:100000000C9446000C9450000C9450000C9450003A
:100010000C9450000C9450000C9450000C94500020
:100020000C9450000C9450000C9450000C94500010
:100030000C9450000C9450000C9450000C94500000
:100040000C9450000C9450000C9450000C945000F0
:100050000C9450000C9450000C9450000C945000E0
:100060000C9450000C9450000C9450000C945000D0
:100070000C9450000C9450000C9450000C945000C0
:100080000C9450000C9450000C94500011241FBE8E
:10009000CFEFD0E1DEBFCDBF0E945E010C94E20243
:1000A0000C940000CF93DF93CDB7DEB72E970FB639
:1000B000F894DEBF0FBECDBF80E090E0A8E4B3E4CB
:1000C00089839A83AB83BC832DEC3CEC4CE255E4F2
:1000D00069817A818B819C810E945702DC01CB016E
:1000E0008D839E83AF83B88720E030E040E85FE3F4
:1000F0006D817E818F8198850E94D60188232CF4A2
:1001000081E090E09A8789873FC020E03FEF4FE78A
:1001100057E46D817E818F8198850E945302181665
:100120004CF520E030E040E251E469817A818B8136
:100130009C810E945702DC01CB01BC01CD010E94D1
:10014000DA01DC01CB019A8789870FC084E191E055
:100150009C878B878B859C850197F1F79C878B8784
:1001600089859A8501979A87898789859A850097D5
:1001700069F714C06D817E818F8198850E94DA01B4
:10018000DC01CB019A87898789859A859E878D872F
:100190008D859E850197F1F79E878D872E960FB6E8
:1001A000F894DEBF0FBECDBFDF91CF910895CF93FE
:1001B000DF9300D0CDB7DEB79A83898389819A8196
:1001C000009741F485E390E021E8FC0120830E9440
:1001D00052006FC089819A818130910541F485E395
:1001E00090E027EDFC0120830E94520062C08981CB
:1001F0009A818230910541F485E390E024EAFC0184
:1002000020830E94520055C089819A8183309105D4
:1002100041F485E390E024E9FC0120830E94520030
:1002200048C089819A818430910541F485E390E04A
:1002300022EDFC0120830E9452003BC089819A81FB
:100240008530910541F485E390E028E9FC012083A5
:100250000E9452002EC089819A818630910541F416
:1002600085E390E028E8FC0120830E94520021C031
:1002700089819A818730910541F485E390E025EDED
:10028000FC0120830E94520014C089819A81883029
:10029000910541F485E390E020E8FC0120830E9471
:1002A000520007C085E390E020E9FC0120830E9412
:1002B00052000F900F90DF91CF910895CF93DF936D
:1002C00000D0CDB7DEB784E390E02FEFFC012083B0
:1002D00081E690E028E0FC01208382E690E028E0BF
:1002E000FC01208384E690E028E0FC01208385E681
:1002F00090E028E0FC01208384E690E020E1FC010E
:10030000208385E690E020E1FC01208382E290E0FA
:1003100020E8FC01208383E290E020E8FC012083B8
:100320001A82198281E290E0FC01808188238CF09E
:1003300089819A818930910519F41A82198205C040
:1003400089819A8101969A83898389819A810E9401
:10035000D70083E690E0FC018081882F90E08870D0
:100360009927009791F489819A81009729F489E06F
:1003700090E09A83898305C089819A8101979A8345
:10038000898389819A810E94D70080E290E0FC01F4
:100390008081882F90E088709927009731F41A8225
:1003A000198289819A810E94D700BCCF2FD008F48E
:1003B00081E0089557D088F09F5790F0B92F992782
:1003C000B751A0F0D1F0660F771F881F991F1AF060
:1003D000BA95C9F712C0B13081F05ED0B1E008958E
:1003E0005BC0672F782F8827B85F39F0B93FCCF30F
:1003F000869577956795B395D9F73EF49095809556
:10040000709561957F4F8F4F9F4F0895990F00080A
:10041000550FAA0BE0E8FEEF16161706E807F907D6
:10042000C0F012161306E407F50798F0621B730B71
:10043000840B950B39F40A2661F0232B242B252BF2
:1004400021F408950A2609F4A140A6958FEF811D95
:10045000811D089557FD9058440F551F59F05F3F77
:1004600071F04795880F97FB991F61F09F3F79F0D6
:1004700087950895121613061406551FF2CF469558
:10048000F1DF08C0161617061806991FF1CF8695DA
:100490007105610508940895E894BB2766277727BE
:1004A000CB0197F90895B2DF08F48FEF08950BD0D0
:1004B00078C069D028F06ED018F0952309F05AC0A2
:1004C0005FC01124EACFC6DFA0F3959FD1F3950F4B
:1004D00050E0551F629FF001729FBB27F00DB11DC8
:1004E000639FAA27F00DB11DAA1F649F6627B00D58
:1004F000A11D661F829F2227B00DA11D621F739F41
:10050000B00DA11D621F839FA00D611D221F749F4E
:100510003327A00D611D231F849F600D211D822F95
:10052000762F6A2F11249F5750408AF0E1F08823DC
:100530004AF0EE0FFF1FBB1F661F771F881F9150E9
:100540005040A9F79E3F510570F014C0A6CF5F3F01
:10055000ECF3983EDCF3869577956795B795F7951C
:10056000E7959F5FC1F7FE2B880F911D96958795A4
:1005700097F9089597F99F6780E870E060E0089523
:100580009FEF80EC089500240A94161617061806AB
:100590000906089500240A94121613061406050687
:1005A0000895092E0394000C11F4882352F0BB0F18
:1005B00040F4BF2B11F460FF04C06F5F7F4F8F4F7B
:0805C0009F4F0895F894FFCF4E
:00000001FF
