:100000000C94C3000C94E2000C94E2000C94E20007
:100010000C94E2000C94E2000C94E2000C94E200D8
:100020000C94E2000C94E2000C94E2000C94E200C8
:100030000C94E2000C94E2000C94E2000C94E200B8
:100040000C94E2000C94E2000C94E2000C94E200A8
:100050000C94E2000C94E2000C94E2000C94E20098
:100060000C94E2000C94E2000C94E2000C94E20088
:100070000C94E2000C94E2000C94E2000C94E20078
:100080000C94E2000C94E2000C94E20000407A1020
:10009000F35A00A0724E18090010A5D4E80000E839
:1000A0007648170000E40B54020000CA9A3B000097
:1000B00000E1F505000080969800000040420F0026
:1000C0000000A08601000000102700000000E803E7
:1000D000000000006400000000000A0000000000B2
:1000E0000100000000002C76D888DC674F0823DF71
:1000F000C1DFAE59E1B1B796E5E3E453C63AE65144
:10010000997696E8E6C28426EB898C9B62ED407C6A
:100110006FFCEFBC9C9F40F2BAA56FA5F490055A06
:100120002AF75C936B6CF9676DC11BFCE0E40D472B
:10013000FEF520E6B500D0ED902E0300943577054E
:100140000080841E080000204E0A000000C80C3306
:100150003333330F986E12831141EF8D2114893B95
:10016000E65516CFFEE6DB18D1844B381BF77C1D15
:10017000901DA4BBE424203284725E228100C9F168
:1001800024ECA1E53D2711241FBECFEFD0E1DEBF57
:10019000CDBF12E0A0E0B1E0EAECF4E100E00BBF7B
:1001A00002C007900D92A231B107D9F712E0A2E187
:1001B000B2E001C01D92A631B107E1F70E94E40050
:1001C0000C94630A0C940000CF93DF931F92CDB779
:1001D000DEB780E590E00E948B068C018FEF84BB38
:1001E00088E08093610080936200A4E6B0E08C9385
:1001F000E5E6F0E0808380E18C93808380E882B93B
:1002000083B90E94D40380E00E94130266E071E08B
:1002100080E00E9485020F2EF3E6AF2EB12CF02D68
:1002200099249A940F997CC066E371E080E00E9463
:1002300085029982CE0101960E94B103882331F094
:1002400063E471E080E00E94850211C06CE571E01A
:1002500080E00E948502898140E150E0B80190E091
:100260000E94B8078C01BC0180E00E9485020E94B8
:10027000DA036B017C0120E030E046EC52EC0E9496
:10028000C004811105C060E771E00E9485023FC093
:1002900065E871E080E00E94850225E043E0C70147
:1002A000B6010E946A068C01DC010D900020E9F77E
:1002B000119785E0E5E9F1E001900D928A95E1F76B
:1002C000B80180E00E94850220E030E040E251E485
:1002D000C701B6010E9439052B013C0120E030E046
:1002E00040EF51E4C701B6010E94EC05882344F0B9
:1002F000C301B2010E94C404CB010E94740407C070
:10030000C301B2010E94C404CB010E940C042FEF70
:100310008FE698E0215080409040E1F700C0000057
:10032000F501808183FD7ECF6AE971E080E00E9463
:1003300085029982CE0101960E94B103882331F093
:1003400060ED71E080E00E94850211C069EE71E00D
:1003500080E00E948502898140E150E0B80190E090
:100360000E94B8078C01BC0180E00E9485020E94B7
:10037000DA036B017C0120E030E046EC52EC0E9495
:10038000C004811105C06DEF71E00E9485023FC07D
:1003900065E871E080E00E94850225E043E0C70146
:1003A000B6010E946A068C01DC010D900020E9F77D
:1003B000119785E0E5E9F1E001900D928A95E1F76A
:1003C000B80180E00E94850220E030E040E251E484
:1003D000C701B6010E9439052B013C0120E030E045
:1003E00040EF51E4C701B6010E94EC05882344F0B8
:1003F000C301B2010E94C404CB010E94740407C06F
:10040000C301B2010E94C404CB010E940C04FFEF9F
:100410002FED80E1F15020408040E1F700C0000066
:10042000039987CFFFCE882351F087E4809399000A
:1004300088E180939A008EE080939D00089587E480
:1004400089B988E18AB98EE0809395000895882360
:1004500049F010929D0010929A001092990010920B
:100460009B000895109295001AB819B81BB808950A
:10047000662371F0882341F0EBE9F0E08081882366
:10048000ECF780919C0008955F9BFECF8CB108959E
:10049000882339F080919B0088233CF480919C0054
:1004A00008955F9B04C08CB1089580E0089580E0BA
:1004B0000895CF93DF93D82FC62F6A3019F46DE0DB
:1004C0000E945902DD2341F0EBE9F0E0808185FFD5
:1004D000FDCFC0939C0003C05D9BFECFCCB9DF91E4
:1004E000CF9108951F93CF93DF93EB01688166232B
:1004F00041F0182F2196812F0E94590269916111B4
:10050000FACFDF91CF911F9108950E947202089552
:100510008330C9F028F4813049F0823081F03AC04C
:10052000853039F1D8F0863069F134C084EA80939F
:100530007400E4E7F0E080818823ECF72BC084E9C5
:100540008093740027C06093730084E880937400E4
:10055000E4E7F0E080818823ECF71CC0609373002F
:1005600084E880937400E4E7F0E080818823ECF76E
:1005700011C084EC80937400E4E7F0E0808188236C
:10058000ECF708C084E880937400E4E7F0E0808131
:100590008823ECF780917100887F089583E0809331
:1005A000710080E28093700008951F93CF93DF93D2
:1005B000D82F162F60E081E00E948802C82F883073
:1005C00011F0803129F46D2F83E00E948802C82F3A
:1005D000C83129F4612F84E00E948802C82FC832F4
:1005E00009F4C0E060E082E00E9488028C2FDF9175
:1005F000CF911F9108950F931F93CF93DF93D82F1F
:10060000062F142F60E081E00E948802C82F8830F6
:1006100011F0803129F46D2F83E00E948802C82FE9
:10062000C83129F4602F84E00E948802C82FC832A4
:1006300041F4612F84E00E948802C82F883209F4B7
:10064000C0E060E082E00E9488028C2FDF91CF91B1
:100650001F910F9108950F931F93CF93DF93D82F7E
:100660008B0160E081E00E948802C82F883011F081
:10067000803131F46D2F616083E00E948802C82FC1
:10068000C03429F460E085E00E948802C82FC0359C
:1006900049F480917300F801808360E086E00E9455
:1006A0008802C82FC83509F4C0E060E082E00E94EB
:1006B00088028C2FDF91CF911F910F9108950F9396
:1006C0001F93CF93DF93D82F8B01FB0111821082F0
:1006D00060E081E00E948802C82F883011F08031EC
:1006E00031F46D2F616083E00E948802C82FC0340E
:1006F00029F460E085E00E948802C82FC035C9F463
:1007000080917300F8011082818360E085E00E948F
:100710008802C82F803569F420917300F801808128
:100720009181822B9183808360E086E00E94880221
:10073000C82FC83509F4C0E060E082E00E9488025A
:100740008C2FDF91CF911F910F910895482F61E079
:100750008EE90E94FB0291E0811101C090E0892F97
:100760000895CF93DF93EC0161E08EE90E94D502FA
:10077000811107C0BE018EE90E942B03811103C0C5
:1007800003C081E001C082E0DF91CF91089581EA4A
:100790000E94A6032FEF8FE698E021508040904002
:1007A000E1F700C0000008950E94CE0281E20E949D
:1007B000A6030895CF93DF9300D0CDB7DEB70E9494
:1007C000C70360E08EE90E94D502811117C0BE0107
:1007D0006F5F7F4F8EE90E945F03811114C06981B2
:1007E0007A81882777FD8095982F0E94F70420E072
:1007F00030E040E85BE30E94F00509C060E070E093
:1008000086EC92EC04C060E070E086EC92EC0F9015
:100810000F90DF91CF9108952FEF24BB28E0209314
:10082000610020936200A4E6B0E02C93E5E6F0E0DE
:10083000208320E12C93208320E822B923B900975C
:1008400029F481E885BB0E946A04089581309105EE
:1008500029F487ED85BB0E946A04089582309105D2
:1008600029F484EA85BB0E946A04089583309105C7
:1008700029F484E985BB0E946A04089584309105B7
:1008800029F482ED85BB0E946A04089585309105A4
:1008900029F488E985BB0E946A0408958630910591
:1008A00029F488E885BB0E946A0408958730910581
:1008B00029F485ED85BB0E946A040895089729F400
:1008C00080E885BB0E946A04089580E985BB0E9488
:1008D0006A0408952FEF8FEB96E0215080409040FE
:1008E000E1F700C0000008952FEF24BB009729F422
:1008F00081E085BB0E946A0408958130910529F446
:1009000087E585BB0E946A0408958230910529F429
:1009100084E285BB0E946A0408958330910529F41E
:1009200084E185BB0E946A0408958430910529F40E
:1009300082E585BB0E946A0408958530910529F4FB
:1009400088E185BB0E946A0408958630910529F4E8
:1009500088E085BB0E946A0408958730910529F4D8
:1009600085E585BB0E946A040895089721F415BAAD
:100970000E946A04089580E185BB0E946A0408957C
:10098000BFD008F481E0089504D06894B1111EC16D
:10099000089501D188F09F5790F0B92F9927B7514A
:1009A000A0F0D1F0660F771F881F991F1AF0BA9533
:1009B000C9F712C0B13081F008D1B1E0089505C186
:1009C000672F782F8827B85F39F0B93FCCF3869529
:1009D00077956795B395D9F73EF490958095709586
:1009E00061957F4F8F4F9F4F0895E89409C097FB03
:1009F0003EF490958095709561957F4F8F4F9F4FF6
:100A00009923A9F0F92F96E9BB279395F695879539
:100A100077956795B795F111F8CFFAF4BB0F11F4FC
:100A200060FF1BC06F5F7F4F8F4F9F4F16C08823A3
:100A300011F096E911C0772321F09EE8872F762FD9
:100A400005C0662371F096E8862F70E060E02AF01A
:100A50009A95660F771F881FDAF7880F9695879506
:100A600097F9089582D018F011F086D038F47AC042
:100A7000ADC0E92F88D0B0F35523C9F3E7FB621767
:100A8000730784079507A8F199F3E92FFF278823B7
:100A90002AF03197660F771F881FDAF7952F5527B1
:100AA000442332F091505040220F331F441FD2F79D
:100AB000BB27E91BF50B621B730B840BB109C1F259
:100AC00022F4620F731F841FB11D31972AF0660F45
:100AD000771F881FBB1FEFCF915050405AF041F055
:100AE000882332F0660F771F881F91505040C1F75E
:100AF00093952AC08695779567959F5FD9F7F8CF2C
:100B0000990F0008550FAA0BE0E8FEEF161617061E
:100B1000E807F907C0F012161306E407F50798F086
:100B2000621B730B840B950B39F40A2661F0232B9F
:100B3000242B252B21F408950A2609F4A140A6951B
:100B40008FEF811D811D08959F3F31F0915020F45A
:100B5000879577956795B795880F911D9695879599
:100B600097F908959FEF80EC089500240A941616D3
:100B7000170618060906089500240A94121613068B
:100B800014060506089557FD9058440F551F59F057
:100B90005F3F71F04795880F97FB991F61F09F3F6A
:100BA00079F087950895121613061406551FF2CF93
:100BB0004695F1DF08C0161617061806991FF1CFE3
:100BC00086957105610508940895E894BB2766270A
:100BD0007727CB0197F9089593DF08F48FEF0895F5
:100BE0000BD067C0C2DF28F0C7DF18F0952309F0EB
:100BF0005AC0B8CF1124EACFC6DFA0F3959FD1F336
:100C0000950F50E0551F629FF001729FBB27F00DBA
:100C1000B11D639FAA27F00DB11DAA1F649F66270F
:100C2000B00DA11D661F829F2227B00DA11D621F5E
:100C3000739FB00DA11D621F839FA00D611D221F18
:100C4000749F3327A00D611D231F849F600D211DFC
:100C5000822F762F6A2F11249F5750408AF0E1F09F
:100C600088234AF0EE0FFF1FBB1F661F771F881FE8
:100C700091505040A9F79E3F510570F014C0A6CF87
:100C80005F3FECF3983EDCF3869577956795B795D3
:100C9000F795E7959F5FC1F7FE2B880F911D9695FD
:100CA000879597F9089597F99F6780E870E060E06D
:100CB0000895092E0394000C11F4882352F0BB0F01
:100CC00040F4BF2B11F460FF04C06F5F7F4F8F4F64
:100CD0009F4F0895EF920F931F93CF93DF93E801F7
:100CE00047FD02C034E001C034E1E42FFF27E7FDF7
:100CF000F095F7FF03C0F195E195F109E32E022F7E
:100D00002E2FAE010E94D907CE01DF91CF911F9106
:100D10000F91EF900895CF93DF938230910510F4F7
:100D200082E090E0E0911402F091150220E030E0C2
:100D3000C0E0D0E0309711F1408151814817590748
:100D4000C0F04817590761F482819381209719F008
:100D50009B838A832BC0909315028093140226C034
:100D60002115310519F04217530718F49A01BE01F5
:100D7000DF01EF010280F381E02DDCCF2115310589
:100D800009F1281B390B2430310590F412968D910E
:100D90009C9113976115710521F0FB019383828368
:100DA00004C09093150280931402FD01329644C052
:100DB000FD01E20FF31F81939193225031092D938E
:100DC0003C933AC02091120230911302232B41F43C
:100DD00020910201309103013093130220931202FB
:100DE00020910001309101012115310541F42DB709
:100DF0003EB74091040150910501241B350BE09151
:100E00001202F0911302E217F307A0F42E1B3F0B1E
:100E10002817390778F0AC014E5F5F4F241735076C
:100E200048F04E0F5F1F50931302409312028193BC
:100E3000919302C0E0E0F0E0CF01DF91CF910895FF
:100E40000F931F93CF93DF93009709F48CC0FC019D
:100E5000329713821282009114021091150201152B
:100E6000110581F420813181820F931F209112029C
:100E7000309113022817390779F5F0931302E093A4
:100E8000120271C0D80140E050E0AE17BF0750F425
:100E900012962D913C911397AD012115310509F161
:100EA000D901F3CF9D01DA013383228360817181FF
:100EB000860F971F8217930769F4EC012881398107
:100EC000260F371F2E5F3F4F318320838A819B81FE
:100ED00093838283452B29F4F0931502E093140247
:100EE00042C01396FC93EE931297ED0149915991EC
:100EF0009E01240F351FE217F30771F48081918161
:100F0000840F951F029611969C938E9382819381F4
:100F100013969C938E931297E0E0F0E0D80112961E
:100F20008D919C911397009719F0F8018C01F6CFE1
:100F30008D919C9198012E5F3F4F820F931F2091BE
:100F40001202309113022817390769F4309729F4F7
:100F5000109215021092140202C013821282109392
:100F6000130200931202DF91CF911F910F91089508
:100F7000FB019F01E8944230C4F04532B4F44A309A
:100F800029F497FB1EF4909581959F4F642F772746
:100F90000E944F0A805D8A330CF0895D8193CB01FA
:100FA0000097A1F716F45DE251931082C9010C94E9
:100FB0003F0A4F925F926F927F929F92AF92BF9241
:100FC000CF92DF92EF92FF920F931F93CF93DF9315
:100FD000CDB7DEB729970FB6F894DEBF0FBECDBFF1
:100FE0006A01122FB02E2BE3201720F0FF24F39478
:100FF000F00E02C0BCE3FB2E0F2D27E0AE014F5FC9
:101000005F4F0E946709AC018981982F99709130D8
:1010100031F0E1FC06C0E0FE06C090E205C09DE2B2
:1010200003C09BE201C090E0EE2DE07183FF3CC065
:10103000911102C083E001C084E0811718F4212FD0
:10104000281B01C020E0E1110BC0F601822F30E225
:10105000882319F031938150FBCFC20ED11C20E0C0
:10106000992329F0D6019C93F60131966F01C601B0
:101070000396E2FE0AC03EE4D6013C9341E4119699
:101080004C93119712963C9306C03EE6F6013083CE
:1010900041E641833283FC01322F40E2332309F4DD
:1010A00042C041933150FACF82FF44C0911102C037
:1010B00083E001C084E0811718F4212F281B01C0B0
:1010C00020E0E1110BC0F601822F30E2882319F0F5
:1010D00031938150FBCFC20ED11C20E0992329F01F
:1010E000D6019C93F60131966F01C6010396E2FE8C
:1010F0000BC039E4D6013C933EE411963C93119722
:1011000036E412963C9307C039E6F60130833EE69A
:10111000318336E63283FC01322F40E2332319F06B
:1011200041933150FBCFFC01E20FF11D10828EEF95
:101130009FEFB7C0F1E0911101C0F0E06F2F70E0B8
:101140001416150624F49A012F5F3F4F02C021E0C8
:1011500030E0260F371FBB2029F06B2D70E06F5F4A
:101160007F4F02C060E070E0260F371F612F70E0F4
:10117000261737071CF4121B212F01C020E03E2D3B
:10118000387159F4D601322F60E2332319F06D9390
:101190003150FBCFC20ED11C20E0FF2331F0D6012D
:1011A0009C93B6016F5F7F4F6B01E1110BC0F6019D
:1011B000922F30E3992319F031939150FBCFC20E57
:1011C000D11C20E09F2D940F3A81782F7071A72EAB
:1011D00084FF03C0313309F49150191624F4993077
:1011E00018F098E001C091E0E42F852F57FF02C06E
:1011F000E0E080E06E2F782FE0E0F0E0AEE29A2EA3
:101200003A01691A71082A01461A570A0B2D10E093
:101210001195019511096F3F8FEF780729F4D601D9
:101220009C92C60101966C014617570784F066161A
:1012300077066CF47F01E40CF51CA1E0B0E0AC0F84
:10124000BD1FEA0EFB1ED7011196BC9002C090E3B1
:10125000B92E615071093196C60101967C01601763
:10126000710724F0D601BC926C01D5CF64177507C5
:1012700041F4363320F4353321F4A11002C081E368
:10128000B82EF601B082F701822F90E2882319F080
:1012900091938150FBCFF701E20FF11D108280E0A6
:1012A00090E029960FB6F894DEBF0FBECDBFDF9158
:1012B000CF911F910F91FF90EF90DF90CF90BF9053
:1012C000AF909F907F906F905F904F9008952830DF
:1012D00008F027E03327DA01990F311D87FD91606F
:1012E00000966105710539F432602E5F3D9330E35D
:1012F0002A95E1F708959F3F30F080387105610528
:1013000009F03C5F3C5F3D93913008F08068911D8F
:10131000DF93CF931F930F93FF92EF92192F987F34
:101320009695E92F96959695E90FFF27EA51FF4F7D
:1013300099273327EE24FF24A701E701059008949D
:10134000079428F4360FE71EF81E491F511D660F3B
:10135000771F881F991F0694A1F70590079428F41A
:10136000E70EF81E491F561FC11D770F881F991FD2
:10137000661F0694A1F70590079428F4F80E491FFC
:10138000561FC71FD11D880F991F661F771F069410
:10139000A1F70590079420F4490F561FC71FD81FC7
:1013A000990F661F771F881F0694A9F784911095DF
:1013B000177041F0D695C79557954795F794E794E0
:1013C0001A95C1F7ECE8F0E0689415901591359105
:1013D0006591959105907FE27395E118F10A430BB1
:1013E000560BC90BD009C0F7E10CF11E431F561F65
:1013F000C91FD01D7EF4703311F48A95E6CFE894AE
:10140000015030F0080F0AF40027021708F4202FCB
:101410002395022F7A3328F079E37D932A95E9F713
:1014200010C07D932A9589F6069497956795379510
:1014300017951794E118F10A430B560BC90BD00905
:1014400098F023957E9173957A3308F070E37C933E
:101450002013B8F77E9170617D9330F0839571E32E
:101460007D9370E32A95E1F71124EF90FF900F919F
:101470001F91CF91DF91992787FD90950895DC0109
:10148000FC01672F71917723E1F7329704C07C91BB
:101490006D9370836291AE17BF07C8F30895AA1BBE
:1014A000BB1B51E107C0AA1FBB1FA617B70710F04F
:1014B000A61BB70B881F991F5A95A9F78095909581
:0A14C000BC01CD010895F894FFCFA0
:1014CA000000160220000A507265737320535735C4
:1014DA0020746F206D616E75616C206D6F6465207C
:1014EA006F7220535733206175746F6D617469632D
:1014FA00206D6F6465000A4D616E75616C206D6FB9
:10150A00646500204572726F722072656164696E4B
:10151A006720636F6E6620726567210020436F6ED5
:10152A006669672072656720696E206865782000A1
:10153A00204572726F722072656164696E672074E9
:10154A00656D7021002E2054656D70657261747529
:10155A0072653A200020C2B043000A4175746F6D6B
:10156A0061746963206D6F6465207374617274734A
:10157A0020707265737320616E64206D616E746190
:10158A00696E2053573220746F2073746F70200075
:10159A004572726F722072656164696E6720636F4B
:1015AA006E66207265672120000A436F6E6669675E
:1015BA002072656720696E2068657820004572721E
:1015CA006F722072656164696E672074656D70213F
:0215DA002000EF
:00000001FF
